:02000000807E00
:08000300E590540F93115E32E9
:0200130080FE6D
:100040007F307EFFDEFEDFFA2274011151748011D1
:1000500051F5A0C294D2951140C295114022C0E042
:10006000BA20061149114D7A00BA100474C011511A
:10007000D0E0F5A0D294D2951140C29511400A2249
:100080001140114075F004743811511140D5F0F948
:10009000740F1151740611511149114D900690754C
:0400A000A89580FEA1
:1006900031323341343536423738394345304644B8
:00000001FF
