:0200000001D726
:02000300803B40
:02000B008074FF
:02001300805714
:1000400011901187E590F430D5028008540F931178
:10005000AC119032116620D106C4FBD2D180F22BB4
:10006000C2D1C2D580E9540F241093221190783068
:10007000EA60138699083099FDC299D5E0F5119090
:1000800032309702D2D5327F307EFFDEFEDFFA2299
:10009000118711871187227401119F7480119FF5B8
:1000A000A0C294D2951187C295118722C0E0BA20D0
:1000B000061197119B7A00BA100474C0119FD0E00A
:1000C000F5A0D294D2951187C295118711CF2274D1
:1000D000302AF8A6A00A22119075F0047438119FF6
:1000E0001187D5F0F911977406119F740F119F11A4
:1000F0009B7A00900690C29775984275A88775897B
:1001000022758C00758AFBD28C758DFD758BFDD2A6
:050110008EC29980FE83
:1006900031323341343536423738394345304644B8
:1006A0000102030A0405060B0708090C0E000F0DD2
:00000001FF
