:0200000001ED10
:02000300803B40
:02000B00019E54
:0200130080610A
:1000400011A411A411A411A4E590F430D502800CE0
:10005000540F9311C211A411A411A43220D108117C
:1000600070C4FCD2D180EE11702CC2D1C2D580E315
:10007000540F2410932211A411A411A4758DFD75A1
:100080008BFDD28ED29978308BF08699083099FD0D
:10009000C299D5F0F5C28E11A411A411A4323097E3
:1000A00002D2D5327F307EFFDEFEDFFA22740111EC
:1000B000B5748011B5F5A0C294D29511A4C2951162
:1000C000A422C0E0BB200611AD11B17B00BB10041F
:1000D00074C011B5D0E0F5A0D294D29511A4C29508
:1000E00011A411E52274302BF8A6A00B2211A41143
:1000F000A475F004743811B511A4D5F0F911AD74DC
:100100000611B5740F11B511B17B00900690C2971E
:1001100075984275A887758922758C00758AFBD2FF
:030120008C80FED2
:1006900031323341343536423738394345304644B8
:1006A0000102030A0405060B0708090C0E000F0DD2
:00000001FF
