:0200000001FD00
:02000300803B40
:02000B0001AB47
:020013008073F8
:1000400011B111B111B111B1E590F430D502800CAC
:10005000540F9311CF11B111B111B13220D11A1136
:1000600082940160F02401940860EA2408940960F5
:10007000E42409C4FCD2D180DC11822CC2D1C2D5C7
:1000800080D1540F240F932211B111B111B1780016
:10009000758DFD758BFDD28E3099FDC29974302817
:1000A000F987990809B910F0C28E32309702D2D57B
:1000B000327F307EFFDEFEDFFA22740111C27480CF
:1000C00011C2F5A0C294D29511B1C29511B122C04E
:1000D000E0BB200611BA11BE7B00BB100474C01136
:1000E000C2D0E0F5A0D294D29511B1C29511B11150
:1000F000F22274302BF8A6A00B0876102211B11151
:10010000B175F004743811C211B1D5F0F911BA7497
:100110000611C2740F11C211BE753010900690C244
:100120009775984275A887758922758C00758AFB2A
:04013000D28C80FEEF
:1006900031323341343536423738394345304644B8
:1006A0000102030A0405060B0708090C0E000F0DD2
:00000001FF
