:0200000001EB12
:02000300803B40
:02000B00019959
:0200130080610A
:10004000119F119F119F119FE590F430D502800CF4
:10005000540F9311BD119F119F119F3220D1081190
:1000600070C4FCD2D180EE11702CC2D1C2D580E315
:10007000540F24109322119F119F119F7800758DAA
:10008000FD758BFDD28E3099FDC299743028F987A9
:10009000990809B910F0C28E32309702D2D5327F5A
:1000A000307EFFDEFEDFFA22740111B0748011B0E1
:1000B000F5A0C294D295119FC295119F22C0E0BBBA
:1000C000200611A811AC7B00BB100474C011B0D085
:1000D000E0F5A0D294D295119FC295119F11E02214
:1000E00074302BF8A6A00B08761022119F119F7573
:1000F000F004743811B0119FD5F0F911A8740611ED
:10010000B0740F11B011AC753010900690C2977595
:10011000984275A887758922758C00758AFBD28CE8
:0201200080FE5F
:1006900031323341343536423738394345304644B8
:1006A0000102030A0405060B0708090C0E000F0DD2
:00000001FF
