:0200000001E21B
:02000300803B40
:02000B0001935F
:0200130080610A
:100040001199119911991199E590F430D502800C0C
:10005000540F9311B71199119911993220D10811A8
:1000600070C4FCD2D180EE11702CC2D1C2D580E315
:10007000540F241093221199119911997830EB6043
:10008000178699083099FDC299D5E0F51199119913
:10009000119932309702D2D5327F307EFFDEFEDFFB
:1000A000FA22740111AA748011AAF5A0C294D29503
:1000B0001199C295119922C0E0BB200611A211A688
:1000C0007B00BB100474C011AAD0E0F5A0D294D27A
:1000D000951199C295119911DA2274302BF8A6A0C6
:1000E0000B221199119975F004743811AA1199D540
:1000F000F0F911A2740611AA740F11AA11A67B00BF
:10010000900690C29775984275A887758922758C5C
:1001100000758AFBD28C758DFD758BFDD28EC299D0
:0201200080FE5F
:1006900031323341343536423738394345304644B8
:1006A0000102030A0405060B0708090C0E000F0DD2
:00000001FF
