:0200000001E01D
:02000300803B40
:02000B00018E64
:02001300805C0F
:10004000E59030D52620D11A94316024243194389B
:10005000601E2438943960182439C454F0FBD2D17E
:10006000800E540F2BC2D18005C2D5540F9311B20C
:10007000327800758DFD758AFDD28E3099FDC2995A
:10008000743028F987990809B910F0C28C3230977A
:1000900002D2D5327F307EFFDEFEDFFA22740111FC
:1000A000A5748011A5F5A0C294D2951194C29511A2
:1000B0009422C0E0BA2006119D11A17A00BA100462
:1000C00074C011A5D0E0F5A0D294D2951194C29538
:1000D000119411D52274302AF8A6A00A08761022AD
:1000E0001194119475F004743811A51194D5F0F998
:1000F000740F11A5740611A5119D11A1900690C24F
:100100009775984275A887758922758C00758AFB4A
:04011000D28C80FE0F
:1006900031323341343536423738394345304644B8
:00000001FF
