:0200000001BA43
:02000B00803340
:01001B0032B2
:02002300803526
:10004000C28CB297209708758CFF758ABB800875A3
:100050008CFF758A8D8000D28C32D2907A00E5A018
:1000600011A63099FDC29920D106E541D2D1800672
:10007000E542C2D1D2D5F59930D5E7C2D50ABA0248
:10008000D93098FDC298E59920D106F543D2D180A8
:1000900006F544C2D1D2D530D5E7C2D511B7B542A5
:1000A0000132C29080FBE54075F00A842430F541AE
:1000B000E5F02430F54222F4042275A88A759842AE
:1000C000758921758CFF758A8DD28C758DED758B38
:0500D000EDD28E80FE60
:00000001FF
