:02000000803E40
:02000B0001A44E
:02001B00216C56
:10004000900400781475A0FF75A88A75500075514A
:1000500000755200755300755402755501756000A6
:1000600075610075620075630075640075650075E3
:100070008911758C3C758AB0D28C758DFC758B1886
:10008000D28E7E067F06D2B2D2B3E552B56213E5B8
:1000900053B5630EE554B56409E555B56504C280F2
:1000A00080E8D280C28C758C3C758A3CD28CD80496
:1000B00080377814320562E562B40A36756200054D
:1000C00063E563B4062C7563000564E564B4040D50
:1000D000E565B402087564007565008015E564B4D3
:1000E0000A107564000565800920B20630B3492006
:1000F000B3C30550E550B40AB97550000551E55138
:10010000B406AF7551000552E552B40AA575520008
:100110000553E553B40A9B7553000554E554B404E4
:100120000BE555B40206755400755500E554B40A44
:1001300081755400055501B20552E552B40AB375F4
:1001400052000553E553B406A97553000554E55410
:10015000B4040DE555B4020875540075650080922D
:10016000E554B40A8D75540005558086C28E758D90
:10017000FC758B18D28E30B312C281BF062275A0D7
:1001800000E56093F59075A0014164D281BE06221E
:1001900075A000E55093F59075A001416230B3124F
:1001A000C281BF052275A000E56193F59075A0029C
:0201B0004164A8
:1001B200D281BE052275A000E55193F59075A0028B
:1001C200416230B312C281BF042275A000E562937E
:1001D200F59075A0044164D281BE042275A000E5A9
:1001E2005293F59075A004807730B312C281BF0399
:1001F2002275A000E56393F59075A0088064D28112
:10020200BE032275A000E55393F59075A0088050B7
:1002120030B312C281BF022275A000E56493F5904B
:1002220075A010803DD281BE022475A000E55493D2
:10023200F59075A010802930B314C281BF012375D7
:10024200A000E56593F59075A0207F078014D28108
:10025200BE010D75A000E55593F59075A0207E07AF
:030262001E321F2A
:0A04000081F34961332505710121E4
:00000001FF
