:02000000803E40
:02000B0001A64C
:02001B00217151
:10004000900400781475A0FF75A88AD2B2D2B37557
:100050005501755402755300755200755100755065
:100060000075650075640075630075620075610058
:10007000756000758911758C3C758AB0D28C758D50
:10008000FC758B18D28E7A067B06E552B56213E5B5
:1000900053B5630EE554B56409E555B56504C280F2
:1000A00080E8D28080E4C28C758C3C758A3CD28C0E
:1000B000D804802B7814320562E562B40A35756283
:1000C000000563E563B4062B7563000564E564B45D
:1000D0000415E565B4021075640075650080142090
:1000E000B21130B35480D0E564B40A0775640005DA
:1000F0006580000550E550B40ABA7550000551E519
:1001000051B406B07551000552E552B40AA67552B5
:10011000000553E553B40A9C7553000554E554B4E7
:10012000040BE555B40206755400755500E554B44A
:100130000A82755400055501B40552E552B40AB35C
:100140007552000553E553B406A97553000554E5EF
:1001500054B4040DE555B40208755400756500806B
:1001600092E554B40A8D7554000555808693F59038
:1001700022C28E758DFC758B18D28E30B30EC28163
:10018000BB061AE560316D75A0014139D281BA060E
:100190001AE550316D75A001413730B30EC281BBF5
:1001A000051AE561316D75A0024139D281BA051A8F
:1001B000E551316D75A002807E30B30EC281BB0463
:1001C0001AE562316D75A004806FD281BA041AE518
:1001D00052316D75A004805F30B30EC281BB031A2B
:1001E000E563316D75A0088050D281BA031AE553DA
:1001F000316D75A008804030B30EC281BB021AE594
:1002000064316D75A0108031D281BA021CE5543181
:100210006D75A010802130B310C281BB011BE56554
:10022000316D75A0207B078010D281BA0109E55598
:0B023000316D75A0207A071A321B32D6
:0A04000081F34961332505710121E4
:00000001FF
